:100000000C94DB000C9403010C9403010C94030189
:100010000C9403010C9403010C9403010C949405BB
:100020000C9403010C9403010C9403010C94030140
:100030000C9403010C9403010C9403010C94030130
:100040000C9448060C9403010C9416060C94F005CD
:100050000C9403010C9403010C9403010C94030110
:100060000C9403010C94030100407A10F35A00A091
:10007000724E18090010A5D4E80000E87648170071
:1000800000E40B54020000CA9A3B000000E1F505B1
:10009000000080969800000040420F000000A086FB
:1000A00001000000102700000000E803000000002D
:1000B0006400000000000A000000000001000000D1
:1000C00000002C76D888DC674F0823DFC1DFAE59EB
:1000D000E1B1B796E5E3E453C63AE651997696E87E
:1000E000E6C28426EB898C9B62ED407C6FFCEFBC02
:1000F0009C9F40F2BAA56FA5F490055A2AF75C932D
:100100006B6CF9676DC11BFCE0E40D47FEF520E662
:10011000B500D0ED902E0300943577050080841E45
:10012000080000204E0A000000C80C333333330FA0
:10013000986E12831141EF8D2114893BE65516CF3D
:10014000FEE6DB18D1844B381BF77C1D901DA4BB49
:10015000E424203284725E228100C9F124ECA1E5FE
:100160003D27000000080002010000030407000012
:1001700000000000000000000000240027002A000A
:10018000010204081020408001020408102001022E
:100190000408102000000000250028002B000404A3
:1001A000040404040404020202020202030303031F
:1001B00003030200DC0811241FBECFEFD8E0DEBF2E
:1001C000CDBF22E0A2EAB1E001C01D92A136B20784
:1001D000E1F711E0A0E0B1E0E0EEFCE102C0059043
:1001E0000D92A23AB107D9F710E0CBEDD0E004C0F0
:1001F0002197FE010E94760CCA3DD107C9F70E94E3
:1002000092060C946E0E0C9400008F929F92AF9207
:10021000BF92CF92DF92EF92FF92CF932091000195
:10022000223061F02F3F81F0CF91FF90EF90DF906F
:10023000CF90BF90AF909F908F900895E2EBF1E048
:10024000C491C7FDF1CF48C022E020930001E2EB4A
:10025000F1E0C491CF3F41F3C13009F401C120F175
:10026000C23079F71092B0001092B1002091B00026
:1002700022602093B0002091B10021602093B10052
:10028000E0EAF1E0E491F0E0EE0FFF1FEC56FE4FE4
:100290002591349130934E0220934D02E2E8F1E033
:1002A000E491E0934C0218C014BC15BC24B5226044
:1002B00024BD25B5216025BDE0EAF1E0E491F0E040
:1002C000EE0FFF1FEC56FE4F25913491E2E8F1E06E
:1002D000E491E0935002C0E0E2E8F1E04491E0EA0A
:1002E000F1E02491222399F030E0220F331FF9012D
:1002F000EA58FE4FA591B491F901EC56FE4F2591B5
:1003000034912FB7F894EC91E42BEC932FBF4C0170
:10031000B12CA12C60E072E18AE790E0A501940184
:100320000E94350C69017A01BA01A90141505109B5
:10033000610971098C2F8D7F09F00EC14F3F510566
:100340006105710509F00CF4ECC060E472E48FE023
:1003500090E0A50194010E94350CBA01A901415019
:10036000510961097109C23009F098C082E04F3F1C
:1003700051056105710509F00CF463C060E970ED89
:1003800083E090E0A50194010E94350CBA01A90117
:10039000415051096109710983E04F3F51056105E1
:1003A000710509F00CF44DC068E478EE81E090E04E
:1003B000A50194010E94350CBA01A90141505109CF
:1003C0006109710984E04F3F510561057105C9F16B
:1003D000C4F164E274EF80E090E0A50194010E9412
:1003E000350CBA01A901415051096109710985E033
:1003F0004F3F51056105710521F118F162E17AE77E
:1004000080E090E0A50194010E94350CBA01A90199
:10041000415051096109710986E04F3F510561055D
:10042000710579F070F0B701A6018AE075956795BE
:10043000579547958A95D1F741505109610971093E
:1004400087E09091B100987F892B8093B100C130F3
:1004500009F4A1C0C23009F4B3C0C111E5CE68C02F
:1004600010928000109281002091810028602093DA
:10047000810020918100216020938100E0EAF1E079
:10048000E491F0E0EE0FFF1FEC56FE4F2591349102
:10049000E2E8F1E0E491E0934F021ECF4F3F5105B7
:1004A0006105710509F00CF455C068E478EE81E04F
:1004B00090E0A50194010E94350CBA01A9014150B8
:1004C00051096109710984E0C11192CF83E04F3F66
:1004D00051056105710541F13CF162E17AE780E087
:1004E00090E0A50194010E94350CBA01A901415088
:1004F00051096109710984E04F3F5105610571059A
:1005000099F090F0B701A6019AE075956795579517
:1005100047959A95D1F7415051096109710985E0D4
:1005200003C081E0C1118DCF95B5987F892B85BD22
:1005300047BD8FEF9FEFDC018093590290935A02E1
:10054000A0935B02B0935C0280916E008260809306
:100550006E006ACE82E0E6CF91E04115510581E060
:10056000680771057CF068E478EE81E090E0A50111
:1005700094010E94350CBA01A90141505109610949
:10058000710993E0C13009F062CF80918100887FCA
:10059000892B8093810050938900409388008FEFCE
:1005A0009FEFDC018093550290935602A09357026F
:1005B000B093580280916F00826080936F0034CEB8
:1005C0004093B3008FEF9FEFDC0180935102909333
:1005D0005202A0935302B093540280917000826043
:1005E0008093700021CEFC01538D448D252F30E087
:1005F000842F90E0821B930B541710F0CF96089530
:1006000001970895FC01918D828D981761F0A28D5C
:10061000AE0FBF2FB11D5D968C91928D9F5F9F7322
:10062000928F90E008958FEF9FEF0895FC01918DD8
:10063000828D981731F0828DE80FF11D858D90E045
:1006400008958FEF9FEF0895FC01918D228D892FE2
:1006500090E0805C9F4F821B91098F7399270895CA
:10066000FC01A48DA80FB92FB11DA35ABF4F2C9127
:10067000848D90E001968F739927848FA689B7891E
:100680002C93A089B1898C91837080648C93938D15
:10069000848D981306C00288F389E02D80818F7DB8
:1006A00080830895EF92FF920F931F93CF93DF9370
:1006B000EC0181E0888F9B8D8C8D98131AC0E8899E
:1006C000F989808185FF15C09FB7F894EE89FF896D
:1006D0006083E889F98980818370806480839FBF0B
:1006E00081E090E0DF91CF911F910F91FF90EF900B
:1006F0000895F62E0B8D10E00F5F1F4F0F7311271B
:10070000E02E8C8D8E110CC00FB607FCFACFE88955
:10071000F989808185FFF5CFCE010E943003F1CFAA
:10072000EB8DEC0FFD2FF11DE35AFF4FF0829FB7C9
:10073000F8940B8FEA89FB8980818062CFCFCF93B9
:10074000DF93EC01888D8823B9F0AA89BB89E889F9
:10075000F9898C9185FD03C0808186FD0DC00FB69F
:1007600007FCF7CF8C9185FFF2CF808185FFEDCF1D
:10077000CE010E943003E9CFDF91CF9108958FEA37
:1007800091E00E94240321E0892B09F420E0822FCC
:10079000089580E090E0892B29F00E94BF03811129
:1007A0000C9400000895AF92BF92CF92DF92EF9227
:1007B000FF920F931F93CF93DF936C017B018B010B
:1007C000040F151FEB015E01AE18BF08C017D1075B
:1007D00059F06991D601ED91FC910190F081E02DE5
:1007E000C6010995892B79F7C501DF91CF911F913A
:1007F0000F91FF90EF90DF90CF90BF90AF90089552
:10080000FC0144815581608171818FEA91E00C94F3
:10081000D30390E0FC01EE59FE4F2491FC01E05817
:10082000FE4F3491FC01E256FE4FE491EE23C9F0F5
:10083000222339F0233001F1A8F4213019F12230BC
:1008400029F1F0E0EE0FFF1FEC56FE4FA591B49199
:100850008FB7F894EC91611126C030953E233C93FC
:100860008FBF08952730A9F02830C9F0243049F708
:10087000809180008F7D03C0809180008F7780936E
:100880008000DFCF84B58F7784BDDBCF84B58F7DCB
:10089000FBCF8091B0008F778093B000D2CF809152
:1008A000B0008F7DF9CF3E2BDACF909100018913F4
:1008B0000BC0E2EBF1E0E4919FEF90930001E13097
:1008C00049F028F0E23061F060E00C9409041092E5
:1008D0006E00FACF90916F009D7F90936F00F4CFE0
:1008E000909170009D7F9093700091E09093B00084
:1008F0009091B100987F94609093B1001092B300F2
:10090000E3CF3FB7F8948091A7019091A801A091FF
:10091000A901B091AA0126B5A89B05C02F3F19F0E7
:100920000196A11DB11D3FBFBA2FA92F982F88276F
:10093000BC01CD01620F711D811D911D42E0660F4A
:10094000771F881F991F4A95D1F708950F931F931A
:10095000CF93DF93EC0188819981009759F02A8128
:100960003B812617370730F081E0DF91CF911F914F
:100970000F9108958B016F5F7F4F0E94A10D00972B
:1009800059F0998388831B830A832C813D81232B13
:1009900059F7FC011082E8CF80E0E7CFEF92FF9299
:1009A0000F931F93CF93DF936115710541F480E09E
:1009B000DF91CF911F910F91FF90EF900895411516
:1009C0005105B1F07B01EC010C811D81040F151F55
:1009D000B8010E94A604882351F3288139818C81B3
:1009E0009D81B701820F931F0E94670E1D830C83A8
:1009F00081E0DECFCF93DF93EC018881998100976E
:100A000011F00E94180D198218821D821C821B820F
:100A10001A82DF91CF910895CF93DF93EC01FB0110
:100A200001900020E9F73197AF01461B570B0E9458
:100A3000CE04811103C0CE010E94FA04CE01DF91E1
:100A4000CF910895CF93DF93EC01FB014481558151
:100A5000608171810E94CE04811103C0CE010E9489
:100A6000FA04CE01DF91CF910895EF92FF920F9398
:100A70001F93CF93DF93EC017B018A01BA010E949F
:100A8000A60481110BC0CE010E94FA04CE01DF91B1
:100A9000CF911F910F91FF90EF9008951D830C83CC
:100AA000B701888199810E94670EF0CFFB01019008
:100AB0000020E9F73197AF01461B570B0C94350521
:100AC0000F931F93CF93DF93CDB7DEB762970FB627
:100AD000F894DEBF0FBECDBF8C01CB01F8011182AF
:100AE000108213821282158214824AE0BE016F5F67
:100AF0007F4F0E942709BE016F5F7F4FC8010E9490
:100B0000560562960FB6F894DEBF0FBECDBFDF91DB
:100B1000CF911F910F910895FC01808191810097E1
:100B200011F00C94180D08951F920F920FB60F92AA
:100B300011242F933F934F935F936F937F938F93E2
:100B40009F93AF93BF93EF93FF9380915102909146
:100B50005202A0915302B0915402892B8A2B8B2B05
:100B6000D1F190914C02E0914D02F0914E028081C2
:100B7000892780838091510290915202A091530263
:100B8000B0915402181619061A061B069CF480919F
:100B9000510290915202A0915302B09154020197D8
:100BA000A109B1098093510290935202A09353027C
:100BB000B0935402FF91EF91BF91AF919F918F91AC
:100BC0007F916F915F914F913F912F910F900FBE49
:100BD0000F901F901895809100010E945504EACF54
:100BE0001F920F920FB60F9211242F933F934F93A2
:100BF0005F936F937F938F939F93AF93BF93EF9385
:100C0000FF938FEA91E00E943003FF91EF91BF9133
:100C1000AF919F918F917F916F915F914F913F9194
:100C20002F910F900FBE0F901F9018951F920F924B
:100C30000FB60F9211242F938F939F93EF93FF93EF
:100C4000E091BF01F091C0018081E091C501F09178
:100C5000C60182FD1BC090818091C8018F5F8F7398
:100C60002091C901821741F0E091C801F0E0E155FF
:100C7000FE4F958F8093C801FF91EF919F918F91C7
:100C80002F910F900FBE0F901F9018958081F4CF79
:100C90001F920F920FB60F9211242F933F938F93B1
:100CA0009F93AF93BF938091A3019091A401A091D2
:100CB000A501B091A6013091A20123E0230F2D37A9
:100CC00058F50196A11DB11D2093A2018093A301A7
:100CD0009093A401A093A501B093A6018091A701D0
:100CE0009091A801A091A901B091AA010196A11D1E
:100CF000B11D8093A7019093A801A093A901B0937F
:100D0000AA01BF91AF919F918F913F912F910F9029
:100D10000FBE0F901F90189526E8230F0296A11D75
:100D2000B11DD2CFCF93DF93CDB7DEB7ED970FB61E
:100D3000F894DEBF0FBECDBF789484B5826084BDC9
:100D400084B5816084BD85B5826085BD85B58160CF
:100D500085BD80916E00816080936E00109281004D
:100D60008091810082608093810080918100816008
:100D700080938100809180008160809380008091C9
:100D8000B10084608093B1008091B0008160809355
:100D9000B00080917A00846080937A0080917A001C
:100DA000826080937A0080917A00816080937A00DB
:100DB00080917A00806880937A001092C10087B198
:100DC00017B88AB185608AB960E080E00E940904A2
:100DD00009E111E035E3A32E31E0B32EF801819152
:100DE00091918F010E9405010E9481042B013C0119
:100DF00024E6C22ED12CE12CF12C0E94810464192E
:100E0000750986099709683E734081059105A8F325
:100E1000F1E0CF1AD108E108F10828EE420E23E0F4
:100E2000521E611C711CC114D104E104F10429F7A4
:100E3000A016B10699F682E00E94550461E080E0B8
:100E40000E9409048DE391E09DAB8CABD12CC12CA9
:100E5000ECA9FDA980813296FDABECAB8E3008F099
:100E60008E508770806480937C0080917A008064CB
:100E700080937A0080917A0086FDFCCFE090780024
:100E8000F0907900F9EEEF16F3E0FF060CF462C083
:100E9000B701CE0101960E9460051BA21AA21DA2F5
:100EA0001CA21FA21EA241E150E065E471E0CE0148
:100EB00082960E943505BE016F5F7F4FCE018296FC
:100EC0000E94220567E571E00E940C050E94000463
:100ED000CE0182960E948C05CE0101960E948C055F
:100EE0002091AD013091AE012530310534F480916F
:100EF000AB019091AC01009721F582E00E9455046E
:100F000061E080E00E9409041092AE011092AD01F0
:100F10001092AC011092AB01FFEFCF1ADF0A24E070
:100F2000C216D10409F094CF80E090E0892B09F437
:100F300089CF0E94BF03882309F484CF0E94000058
:100F400081CF2F5F3F4F3093AE012093AD010E94C0
:100F50000501E2CF60E080E00E94090443E150E037
:100F60006AE571E08FEA91E00E94D303B701CE01F8
:100F700001960E946005B601CE0182960E9460052E
:100F800019A618A61BA61AA61DA61CA645E050E089
:100F90006EE671E0CE0188960E943505BE016E5D59
:100FA0007F4FCE0188960E94220564E771E00E947F
:100FB0000C05BE016F5F7F4F0E9422056FE971E053
:100FC0000E940C050E940004CE0188960E948C05A8
:100FD000CE0182960E948C05CE0101960E948C055E
:100FE0009601220F331F220F331F3DAF2CAF83E337
:100FF00091E09FAB8EAB19AE18AE312C212C9AEF3D
:101000009AAFE3E4EBAFB12CA12CEEA9FFA981903C
:101010009190FFABEEABB4016E197F09E814F904AF
:1010200018F0B7016819790990E080E00E94980BE8
:101030002B013C011BA21AA21DA21CA21FA21EA2D0
:101040008E010F5F1F4F22E044E00E9409090097C4
:1010500009F4AAC0BC01CE0182960E94560519A6C9
:1010600018A61BA61AA61DA61CA64AE0BE016F5F05
:101070007F4FC4010E943209BE016F5F7F4FCE01D6
:1010800088960E945605B501CE0101960E94600522
:101090001FA61EA619AA18AA1BAA1AAA49E050E060
:1010A0006BE871E0CE018E960E943505BE016F5F40
:1010B0007F4FCE018E960E94220565E971E00E9465
:1010C0000C05BE01685D7F4F0E94220569E971E051
:1010D0000E940C05BE016E5D7F4F0E9422056EE9E5
:1010E00071E00E940C050E940004CE018E960E94C1
:1010F0008C05CE0101960E948C05CE0188960E9437
:101100008C05CE0182960E948C059201A301632D6D
:10111000722D8AAD9BAD0E94300C181684F42CAD54
:101120003DAD2A0D3B1D39AF28AF38EE831633E0B5
:10113000930609F43EC0342C252C6AAE7BAE8FEFAB
:10114000A81AB80A95E0A916B10409F05ECFE8AD77
:10115000F9ADEE0FFF1FE75EFE4FE080F180B701B3
:101160000F2C000C880B990B0E949A0B20E030E0AA
:10117000A9010E94930B1816E4F4E1E0F0E0F0936B
:10118000AE01E093AD01C7018093AB019093AC0138
:101190000E9405018091AD019091AE01019690935E
:1011A000AE018093AD01B8CECE0182960E94FA04C2
:1011B00056CF80E090E0E8CFEFEAF1E013821282B0
:1011C00088EE93E0A0E0B0E084839583A683B783A4
:1011D0008BE091E09183808385EC90E09587848714
:1011E00084EC90E09787868780EC90E0918B808BF1
:1011F00081EC90E0938B828B82EC90E0958B848BDA
:1012000086EC90E0978B868B118E128E138E148E47
:101210000895EF920F931F93CF93DF93E80134E08B
:1012200047FD34E1042E000C550B57FF03C05195C8
:1012300041955109E32E022F242FAE010E944C0943
:10124000CE01DF91CF911F910F91EF900895BB27B1
:101250004A3031F4992322F4BDE2909581959F4F55
:101260000C943309BB27FB015527AA27880F991F28
:10127000AA1FA41710F0A41B83955051B9F7A05DC5
:10128000AA3308F0A95DA193009779F7B111B19342
:101290001192CB010C94830BA9E0B0E0E2E5F9E0F8
:1012A0000C94FF0B6A01F22EB02E102FFBE3AF2E31
:1012B000A01608F41BE31F5F012F27E0AE014F5F6C
:1012C0005F4F0E94AB0ABC018981982F99709130C1
:1012D00009F43FC09BE2E1FC04C09E2D9170E0FC4C
:1012E0003AC05E2D5071E82FE87083FF46C084E05D
:1012F000911101C083E0EF2DE81B8F1508F0E0E0AD
:10130000D6018E2F20E2552351F1992329F0D601E1
:101310009C93C60101966C0196012D5F3F4FE2FE42
:1013200024C08EE4D6018C9391E411969C9311977E
:1013300012968C93D9018E2F90E281111BC0E20F7F
:10134000F32FF11D10828EEF9FEF2996ECE00C94A5
:101350001B0C9DE2C6CF90E2C4CF2D93815081112A
:10136000FCCFCE0ED11CE0E0D0CF8EE6D6018C9320
:1013700091E6DBCF9D938150E0CF482F447082FFF0
:101380003DC084E0911101C083E08F1510F4EF2D72
:10139000E81BD6018E2F20E2552309F1992329F06D
:1013A000D6019C93C60101966C0196012D5F3F4FBB
:1013B000E2FE1BC089E4D6018C938EE411968C93D7
:1013C000119786E412968C93D9018E2F90E2882390
:1013D00009F4B5CF9D938150FACF2D93815081119F
:1013E000FCCFCE0ED11CE0E0D9CF89E6D6018C939C
:1013F0008EE611968C93119786E6E4CF9B0177FFDA
:1014000002C030E020E0A1E0B0E0911102C0B0E005
:10141000A0E0F9013196AE0FBF1F8B2C912CBB20A1
:1014200009F461C05401EFEFAE1ABE0AAA0DBB1D4C
:10143000FA161B0619F014F04F2D4A1B511188C0E3
:10144000E3FC59C07601A42FB0E2A1114FC0C40E35
:10145000D11C992309F45BC040E0D6011196F60136
:1014600090836D01552309F448C0012F060F9A811E
:10147000582F507184FF03C0913309F401501016A6
:101480000CF047C0093008F008E0EEE2FE2E5B01E8
:10149000A01AB10885019194819491082F3F3207D9
:1014A00029F4D601FC92F60131966F016217730799
:1014B00094F1021713077CF5DB01A21BB30BAA24DE
:1014C000A394B12CAC0EBD1EAA0DBB1D11968C9120
:1014D00021503109D601119628153905F4F0F6018D
:1014E00080836D01DBCFB12CA12CA0CFF701B1938C
:1014F0007F01A150AACF9111B0CFD601942F50E314
:1015000002C05D9391509111FCCFC40ED11C40E0FC
:10151000ACCF01E0BACF80E3DBCF6217730731F4C1
:10152000963388F4953311F4552369F0F6018083DE
:10153000FD01842F90E2811108C0A40FB11D1C92FF
:1015400090E080E002CF81E3F1CF91938150F3CF1F
:10155000911183CF8ACF283008F027E03327DA01B2
:10156000990F311D87FD916000966105710539F471
:1015700032602E5F3D9330E32A95E1F708959F3F57
:1015800030F080387105610509F03C5F3C5F3D93A8
:10159000913008F08068911DDF93CF931F930F93D4
:1015A000FF92EF92192F987F9695E92F9695969531
:1015B000E90FFF27EE53FF4F99273327EE24FF242F
:1015C000A701E70105900894079428F4360FE71E59
:1015D000F81E491F511D660F771F881F991F06941B
:1015E000A1F70590079428F4E70EF81E491F561F2F
:1015F000C11D770F881F991F661F0694A1F70590DC
:10160000079428F4F80E491F561FC71FD11D880FD5
:10161000991F661F771F0694A1F70590079420F481
:10162000490F561FC71FD81F990F661F771F881FA6
:101630000694A9F784911095177041F0D695C79537
:1016400057954795F794E7941A95C1F7E8E6F0E0C7
:1016500068941590159135916591959105907FE26B
:101660007395E118F10A430B560BC90BD009C0F76B
:10167000E10CF11E431F561FC91FD01D7EF47033AD
:1016800011F48A95E6CFE894015030F0080F0AF47F
:101690000027021708F4202F2395022F7A3328F011
:1016A00079E37D932A95E9F710C07D932A9589F611
:1016B000069497956795379517951794E118F10A51
:1016C000430B560BC90BD00998F023957E91739567
:1016D0007A3308F070E37C932013B8F77E91706141
:1016E0007D9330F0839571E37D9370E32A95E1F764
:1016F0001124EF90FF900F911F91CF91DF919927C7
:1017000087FD90950895DC01FC01672F7191772387
:10171000E1F7329704C07C916D9370836291AE17AC
:10172000BF07C8F308950E94D50B08F481E008951F
:10173000E89409C097FB3EF490958095709561956B
:101740007F4F8F4F9F4F9923A9F0F92F96E9BB2721
:101750009395F695879577956795B795F111F8CF9D
:10176000FAF4BB0F11F460FF1BC06F5F7F4F8F4F08
:101770009F4F16C0882311F096E911C0772321F0FE
:101780009EE8872F762F05C0662371F096E8862F96
:1017900070E060E02AF09A95660F771F881FDAF7ED
:1017A000880F9695879597F90895990F0008550F1A
:1017B000AA0BE0E8FEEF16161706E807F907C0F0D7
:1017C00012161306E407F50798F0621B730B840BDF
:1017D000950B39F40A2661F0232B242B252B21F4B9
:1017E00008950A2609F4A140A6958FEF811D811D59
:1017F00008952F923F924F925F926F927F928F92B5
:101800009F92AF92BF92CF92DF92EF92FF920F938F
:101810001F93CF93DF93CDB7DEB7CA1BDB0B0FB699
:10182000F894DEBF0FBECDBF09942A883988488856
:101830005F846E847D848C849B84AA84B984C884EC
:10184000DF80EE80FD800C811B81AA81B981CE0FE3
:10185000D11D0FB6F894DEBF0FBECDBFED010895C8
:101860000E94D50B08F48FEF0895052E97FB1EF408
:1018700000940E944C0C57FD07D00E94540C07FCAA
:1018800003D04EF40C944C0C509540953095219516
:101890003F4F4F4F5F4F089590958095709561959C
:1018A0007F4F8F4F9F4F0895A1E21A2EAA1BBB1B9B
:1018B000FD010DC0AA1FBB1FEE1FFF1FA217B3071C
:1018C000E407F50720F0A21BB30BE40BF50B661F32
:1018D000771F881F991F1A9469F7609570958095F6
:1018E00090959B01AC01BD01CF010895EE0FFF1F44
:1018F0000590F491E02D09940F931F93CF93DF93FC
:101900008230910510F482E090E0E0915F02F09166
:10191000600230E020E0B0E0A0E0309799F42115BB
:10192000310509F44AC0281B390B24303105D8F59C
:101930008A819B816115710589F1FB019383828303
:10194000FE0111C04081518102811381481759075E
:10195000E0F04817590799F4109761F012960C932C
:10196000129713961C933296CF01DF91CF911F915E
:101970000F91089500935F0210936002F4CF211538
:10198000310551F04217530738F0A901DB019A01E4
:10199000BD01DF01F801C1CFEF01F9CF90936002E3
:1019A00080935F02CDCFFE01E20FF31F81939193ED
:1019B0002250310939832883D7CF20915D0230919D
:1019C0005E02232B41F420910301309104013093F6
:1019D0005E0220935D0220910101309102012115E8
:1019E000310541F42DB73EB74091050150910601F4
:1019F000241B350BE0915D02F0915E02E217F307C4
:101A0000A0F42E1B3F0B2817390778F0AC014E5F6E
:101A10005F4F2417350748F04E0F5F1F50935E024B
:101A200040935D02819391939FCFF0E0E0E09CCFE3
:101A3000CF93DF930097E9F0FC0132971382128273
:101A4000A0915F02B0916002ED0130E020E01097BC
:101A5000A1F420813181820F931F20915D0230918A
:101A60005E022817390709F061C0F0935E02E09327
:101A70005D02DF91CF910895EA01CE17DF07E8F507
:101A80004A815B819E0141155105B1F7E901FB8354
:101A9000EA8349915991C40FD51FEC17FD0761F4F2
:101AA000808191810296840F951FE9019983888333
:101AB000828193819B838A83F0E0E0E012968D918E
:101AC0009C9113970097B9F52D913C911197CD01F9
:101AD0000296820F931F20915D0230915E022817BB
:101AE000390739F6309751F51092600210925F0273
:101AF000B0935E02A0935D02BCCFD383C2834081CA
:101B00005181840F951FC817D90761F44E5F5F4F4D
:101B100088819981480F591F518340838A819B8115
:101B2000938382832115310509F0B0CFF0936002D1
:101B3000E0935F029ECFFD01DC01C0CF13821282D1
:101B4000D7CFB0E0A0E0E7EAFDE00C94FB0B8C01FE
:101B5000009751F4CB010E947C0C8C01C801CDB7D9
:101B6000DEB7E0E10C94170CFC01E60FF71F9C01B7
:101B700022503109E217F30708F49DC0D901CD9135
:101B8000DC911197C617D70798F0C530D10530F30F
:101B9000CE0104978617970708F3C61BD70B229729
:101BA000C193D1936D937C93CF010E94180DD6CF32
:101BB0005B01AC1ABD0A4C018C0E9D1EA0915F0208
:101BC000B0916002512C412CF12CE12C109731F591
:101BD00080915D0290915E028815990509F05CC0C4
:101BE0004616570608F058C08091010190910201F5
:101BF000009741F48DB79EB74091050150910601C1
:101C0000841B950BE817F90708F055C0F0935E02A6
:101C1000E0935D02F90171836083A0CF8D919C9167
:101C2000119712966C90129713967C901397A815A3
:101C3000B90559F56C0142E0C40ED11CCA14DB048D
:101C400020F1AC014A195B09DA011296159780F070
:101C50006282738251834083D9016D937C93E11436
:101C6000F10471F0D7011396FC93EE93129776CF9F
:101C700022968C0F9D1FF90191838083F301EFCF92
:101C8000F0936002E0935F0269CF4816590608F4AA
:101C90002C017D01D3019ACFCB010E947C0C7C01E9
:101CA000009749F0AE01B8010E945E0EC8010E9483
:101CB000180D870153CF10E000E050CFFB01DC018D
:101CC00002C001900D9241505040D8F70895FB0199
:101CD000DC0101900D920020E1F70895F894FFCF08
:101CE000FF000061028000000000005203D303F3F4
:101CF000029F032403020316030601150126013780
:101D0000014A015D01720188019F01B801D201EE13
:101D1000010B020000FB01A802FE02E80300000123
:101D200000020003004E6F7468696E672050726590
:101D300073736564202800290A00536F6D65746809
:101D4000696E6720707265737365643A2000506134
:101D500064205B005D2E204D6561737572696E674E
:101D600020566F6C746167653A20000A20457272D4
:101D70006F72205B005D2D280029203D2000200A85
:021D8000000061
:00000001FF
